{
  "_format": "hh-sol-artifact-1",
  "contractName": "WavePortal",
  "sourceName": "contracts/WavePortal.sol",
  "abi": [
    {
      "inputs": [],
      "stateMutability": "nonpayable",
      "type": "constructor"
    },
    {
      "inputs": [],
      "name": "getMyWaves",
      "outputs": [
        {
          "internalType": "uint256",
          "name": "",
          "type": "uint256"
        }
      ],
      "stateMutability": "view",
      "type": "function"
    },
    {
      "inputs": [],
      "name": "getTotalWaves",
      "outputs": [
        {
          "internalType": "uint256",
          "name": "",
          "type": "uint256"
        }
      ],
      "stateMutability": "view",
      "type": "function"
    },
    {
      "inputs": [],
      "name": "totalWaves",
      "outputs": [
        {
          "internalType": "uint256",
          "name": "",
          "type": "uint256"
        }
      ],
      "stateMutability": "view",
      "type": "function"
    },
    {
      "inputs": [],
      "name": "wave",
      "outputs": [],
      "stateMutability": "nonpayable",
      "type": "function"
    },
    {
      "inputs": [
        {
          "internalType": "address",
          "name": "",
          "type": "address"
        }
      ],
      "name": "waves",
      "outputs": [
        {
          "internalType": "uint256",
          "name": "",
          "type": "uint256"
        }
      ],
      "stateMutability": "view",
      "type": "function"
    }
  ],
  "bytecode": "0x608060405234801561001057600080fd5b5061003c6040518060600160405280602581526020016109db6025913961004160201b6102911760201c565b6101c4565b6100dd816040516024016100559190610142565b6040516020818303038152906040527f41304fac000000000000000000000000000000000000000000000000000000007bffffffffffffffffffffffffffffffffffffffffffffffffffffffff19166020820180517bffffffffffffffffffffffffffffffffffffffffffffffffffffffff83818316178352505050506100e060201b60201c565b50565b60008151905060006a636f6e736f6c652e6c6f679050602083016000808483855afa5050505050565b600061011482610164565b61011e818561016f565b935061012e818560208601610180565b610137816101b3565b840191505092915050565b6000602082019050818103600083015261015c8184610109565b905092915050565b600081519050919050565b600082825260208201905092915050565b60005b8381101561019e578082015181840152602081019050610183565b838111156101ad576000848401525b50505050565b6000601f19601f8301169050919050565b610808806101d36000396000f3fe608060405234801561001057600080fd5b50600436106100575760003560e01c80632581ccd11461005c578063291bcab31461008c5780636fe15b44146100aa5780639a2cdc08146100b4578063f3f2d91b146100d2575b600080fd5b6100766004803603810190610071919061053f565b6100f0565b604051610083919061067f565b60405180910390f35b610094610108565b6040516100a1919061067f565b60405180910390f35b6100b261010e565b005b6100bc6101be565b6040516100c9919061067f565b60405180910390f35b6100da610209565b6040516100e7919061067f565b60405180910390f35b60006020528060005260406000206000915090505481565b60015481565b60016000803373ffffffffffffffffffffffffffffffffffffffff1673ffffffffffffffffffffffffffffffffffffffff168152602001908152602001600020600082825461015d91906106b6565b92505081905550600180600082825461017691906106b6565b925050819055506101bc6040518060400160405280600d81526020017f25732068617320776176656421000000000000000000000000000000000000008152503361032a565b565b60006102016040518060400160405280601781526020017f5765206861766520256420746f74616c207761766573210000000000000000008152506001546103c6565b600154905090565b600061024d6040518060400160405280601781526020017f53656e646572202573206861732025642077617665732100000000000000000081525033600154610462565b6000803373ffffffffffffffffffffffffffffffffffffffff1673ffffffffffffffffffffffffffffffffffffffff16815260200190815260200160002054905090565b610327816040516024016102a591906105bf565b6040516020818303038152906040527f41304fac000000000000000000000000000000000000000000000000000000007bffffffffffffffffffffffffffffffffffffffffffffffffffffffff19166020820180517bffffffffffffffffffffffffffffffffffffffffffffffffffffffff8381831617835250505050610501565b50565b6103c282826040516024016103409291906105e1565b6040516020818303038152906040527f319af333000000000000000000000000000000000000000000000000000000007bffffffffffffffffffffffffffffffffffffffffffffffffffffffff19166020820180517bffffffffffffffffffffffffffffffffffffffffffffffffffffffff8381831617835250505050610501565b5050565b61045e82826040516024016103dc92919061064f565b6040516020818303038152906040527f9710a9d0000000000000000000000000000000000000000000000000000000007bffffffffffffffffffffffffffffffffffffffffffffffffffffffff19166020820180517bffffffffffffffffffffffffffffffffffffffffffffffffffffffff8381831617835250505050610501565b5050565b6104fc83838360405160240161047a93929190610611565b6040516020818303038152906040527f07c81217000000000000000000000000000000000000000000000000000000007bffffffffffffffffffffffffffffffffffffffffffffffffffffffff19166020820180517bffffffffffffffffffffffffffffffffffffffffffffffffffffffff8381831617835250505050610501565b505050565b60008151905060006a636f6e736f6c652e6c6f679050602083016000808483855afa5050505050565b600081359050610539816107bb565b92915050565b60006020828403121561055157600080fd5b600061055f8482850161052a565b91505092915050565b6105718161070c565b82525050565b60006105828261069a565b61058c81856106a5565b935061059c818560208601610748565b6105a5816107aa565b840191505092915050565b6105b98161073e565b82525050565b600060208201905081810360008301526105d98184610577565b905092915050565b600060408201905081810360008301526105fb8185610577565b905061060a6020830184610568565b9392505050565b6000606082019050818103600083015261062b8186610577565b905061063a6020830185610568565b61064760408301846105b0565b949350505050565b600060408201905081810360008301526106698185610577565b905061067860208301846105b0565b9392505050565b600060208201905061069460008301846105b0565b92915050565b600081519050919050565b600082825260208201905092915050565b60006106c18261073e565b91506106cc8361073e565b9250827fffffffffffffffffffffffffffffffffffffffffffffffffffffffffffffffff038211156107015761070061077b565b5b828201905092915050565b60006107178261071e565b9050919050565b600073ffffffffffffffffffffffffffffffffffffffff82169050919050565b6000819050919050565b60005b8381101561076657808201518184015260208101905061074b565b83811115610775576000848401525b50505050565b7f4e487b7100000000000000000000000000000000000000000000000000000000600052601160045260246000fd5b6000601f19601f8301169050919050565b6107c48161070c565b81146107cf57600080fd5b5056fea2646970667358221220db410245bb5aa19510fe81ab5a4d07ae68b6729db352c0ced7e163dfc6ca9adc64736f6c63430008000033596f20796f2c204920616d206120636f6e747261637420616e64204920616d20736d617274",
  "linkReferences": {},
  "deployedLinkReferences": {}
}